{
  "contractName": "Doc",
  "abi": [
    {
      "constant": true,
      "inputs": [
        {
          "name": "",
          "type": "uint256"
        }
      ],
      "name": "doctor",
      "outputs": [
        {
          "name": "doctorId",
          "type": "uint256"
        },
        {
          "name": "doctorAddress",
          "type": "address"
        },
        {
          "name": "name",
          "type": "string"
        }
      ],
      "payable": false,
      "stateMutability": "view",
      "type": "function"
    },
    {
      "constant": true,
      "inputs": [],
      "name": "xyz",
      "outputs": [
        {
          "name": "",
          "type": "uint256"
        }
      ],
      "payable": false,
      "stateMutability": "view",
      "type": "function"
    },
    {
      "constant": true,
      "inputs": [
        {
          "name": "",
          "type": "uint256"
        }
      ],
      "name": "patient",
      "outputs": [
        {
          "name": "patientId",
          "type": "uint256"
        },
        {
          "name": "patientAddress",
          "type": "address"
        },
        {
          "name": "name",
          "type": "string"
        },
        {
          "name": "filehash",
          "type": "string"
        },
        {
          "name": "drNotes",
          "type": "string"
        }
      ],
      "payable": false,
      "stateMutability": "view",
      "type": "function"
    },
    {
      "inputs": [],
      "payable": false,
      "stateMutability": "nonpayable",
      "type": "constructor"
    },
    {
      "constant": false,
      "inputs": [
        {
          "name": "x",
          "type": "string"
        }
      ],
      "name": "set",
      "outputs": [],
      "payable": false,
      "stateMutability": "nonpayable",
      "type": "function"
    },
    {
      "constant": true,
      "inputs": [
        {
          "name": "xyz1",
          "type": "address"
        }
      ],
      "name": "getId",
      "outputs": [
        {
          "name": "",
          "type": "uint256"
        }
      ],
      "payable": false,
      "stateMutability": "view",
      "type": "function"
    },
    {
      "constant": false,
      "inputs": [
        {
          "name": "_newDr",
          "type": "address"
        }
      ],
      "name": "changeHeadDr",
      "outputs": [],
      "payable": false,
      "stateMutability": "nonpayable",
      "type": "function"
    },
    {
      "constant": false,
      "inputs": [
        {
          "name": "_name",
          "type": "string"
        }
      ],
      "name": "newPatient",
      "outputs": [],
      "payable": false,
      "stateMutability": "nonpayable",
      "type": "function"
    },
    {
      "constant": false,
      "inputs": [
        {
          "name": "_name",
          "type": "string"
        }
      ],
      "name": "newDoctor",
      "outputs": [],
      "payable": false,
      "stateMutability": "nonpayable",
      "type": "function"
    },
    {
      "constant": true,
      "inputs": [
        {
          "name": "_patientId",
          "type": "uint256"
        }
      ],
      "name": "doctorCheckup",
      "outputs": [
        {
          "name": "",
          "type": "string"
        }
      ],
      "payable": false,
      "stateMutability": "view",
      "type": "function"
    },
    {
      "constant": false,
      "inputs": [
        {
          "name": "_patientId",
          "type": "uint256"
        },
        {
          "name": "_notes",
          "type": "string"
        }
      ],
      "name": "doctorNotes",
      "outputs": [
        {
          "name": "",
          "type": "string"
        }
      ],
      "payable": false,
      "stateMutability": "nonpayable",
      "type": "function"
    },
    {
      "constant": false,
      "inputs": [
        {
          "name": "_file",
          "type": "string"
        }
      ],
      "name": "uploadFile",
      "outputs": [],
      "payable": false,
      "stateMutability": "nonpayable",
      "type": "function"
    },
    {
      "constant": true,
      "inputs": [
        {
          "name": "_id",
          "type": "uint256"
        }
      ],
      "name": "getHash",
      "outputs": [
        {
          "name": "",
          "type": "string"
        }
      ],
      "payable": false,
      "stateMutability": "view",
      "type": "function"
    }
  ],
  "bytecode": "0x608060405260006001556000600355600060045534801561001f57600080fd5b5033600260006101000a81548173ffffffffffffffffffffffffffffffffffffffff021916908373ffffffffffffffffffffffffffffffffffffffff1602179055506114e5806100706000396000f3fe6080604052600436106100ba576000357c0100000000000000000000000000000000000000000000000000000000900463ffffffff1680631950e7b6146100bf578063230aac0a146101ad578063356bc81e1461027557806347ccf357146102a05780634ed3885e1461036857806354dff6701461043057806365f68c89146104e45780636b2fafa91461054957806374607d91146105fd5780639f734f82146107c3578063c245a43914610814578063e37ffc301461095f575b600080fd5b3480156100cb57600080fd5b506100f8600480360360208110156100e257600080fd5b8101908080359060200190929190505050610a27565b604051808481526020018373ffffffffffffffffffffffffffffffffffffffff1673ffffffffffffffffffffffffffffffffffffffff16815260200180602001828103825283818151815260200191508051906020019080838360005b83811015610170578082015181840152602081019050610155565b50505050905090810190601f16801561019d5780820380516001836020036101000a031916815260200191505b5094505050505060405180910390f35b3480156101b957600080fd5b50610273600480360360208110156101d057600080fd5b81019080803590602001906401000000008111156101ed57600080fd5b8201836020820111156101ff57600080fd5b8035906020019184600183028401116401000000008311171561022157600080fd5b91908080601f016020809104026020016040519081016040528093929190818152602001838380828437600081840152601f19601f820116905080830192505050505050509192919290505050610b18565b005b34801561028157600080fd5b5061028a610c68565b6040518082815260200191505060405180910390f35b3480156102ac57600080fd5b50610366600480360360208110156102c357600080fd5b81019080803590602001906401000000008111156102e057600080fd5b8201836020820111156102f257600080fd5b8035906020019184600183028401116401000000008311171561031457600080fd5b91908080601f016020809104026020016040519081016040528093929190818152602001838380828437600081840152601f19601f820116905080830192505050505050509192919290505050610c6e565b005b34801561037457600080fd5b5061042e6004803603602081101561038b57600080fd5b81019080803590602001906401000000008111156103a857600080fd5b8201836020820111156103ba57600080fd5b803590602001918460018302840111640100000000831117156103dc57600080fd5b91908080601f016020809104026020016040519081016040528093929190818152602001838380828437600081840152601f19601f820116905080830192505050505050509192919290505050610d58565b005b34801561043c57600080fd5b506104696004803603602081101561045357600080fd5b8101908080359060200190929190505050610d84565b6040518080602001828103825283818151815260200191508051906020019080838360005b838110156104a957808201518184015260208101905061048e565b50505050905090810190601f1680156104d65780820380516001836020036101000a031916815260200191505b509250505060405180910390f35b3480156104f057600080fd5b506105336004803603602081101561050757600080fd5b81019080803573ffffffffffffffffffffffffffffffffffffffff169060200190929190505050610e49565b6040518082815260200191505060405180910390f35b34801561055557600080fd5b506105826004803603602081101561056c57600080fd5b8101908080359060200190929190505050610ef0565b6040518080602001828103825283818151815260200191508051906020019080838360005b838110156105c25780820151818401526020810190506105a7565b50505050905090810190601f1680156105ef5780820380516001836020036101000a031916815260200191505b509250505060405180910390f35b34801561060957600080fd5b506106366004803603602081101561062057600080fd5b8101908080359060200190929190505050610fb2565b604051808681526020018573ffffffffffffffffffffffffffffffffffffffff1673ffffffffffffffffffffffffffffffffffffffff168152602001806020018060200180602001848103845287818151815260200191508051906020019080838360005b838110156106b657808201518184015260208101905061069b565b50505050905090810190601f1680156106e35780820380516001836020036101000a031916815260200191505b50848103835286818151815260200191508051906020019080838360005b8381101561071c578082015181840152602081019050610701565b50505050905090810190601f1680156107495780820380516001836020036101000a031916815260200191505b50848103825285818151815260200191508051906020019080838360005b83811015610782578082015181840152602081019050610767565b50505050905090810190601f1680156107af5780820380516001836020036101000a031916815260200191505b509850505050505050505060405180910390f35b3480156107cf57600080fd5b50610812600480360360208110156107e657600080fd5b81019080803573ffffffffffffffffffffffffffffffffffffffff1690602001909291905050506111df565b005b34801561082057600080fd5b506108e46004803603604081101561083757600080fd5b81019080803590602001909291908035906020019064010000000081111561085e57600080fd5b82018360208201111561087057600080fd5b8035906020019184600183028401116401000000008311171561089257600080fd5b91908080601f016020809104026020016040519081016040528093929190818152602001838380828437600081840152601f19601f82011690508083019250505050505050919291929050505061127f565b6040518080602001828103825283818151815260200191508051906020019080838360005b83811015610924578082015181840152602081019050610909565b50505050905090810190601f1680156109515780820380516001836020036101000a031916815260200191505b509250505060405180910390f35b34801561096b57600080fd5b50610a256004803603602081101561098257600080fd5b810190808035906020019064010000000081111561099f57600080fd5b8201836020820111156109b157600080fd5b803590602001918460018302840111640100000000831117156109d357600080fd5b91908080601f016020809104026020016040519081016040528093929190818152602001838380828437600081840152601f19601f8201169050808301925050505050505091929192905050506112bf565b005b600681815481101515610a3657fe5b90600052602060002090600302016000915090508060000154908060010160009054906101000a900473ffffffffffffffffffffffffffffffffffffffff1690806002018054600181600116156101000203166002900480601f016020809104026020016040519081016040528092919081815260200182805460018160011615610100020316600290048015610b0e5780601f10610ae357610100808354040283529160200191610b0e565b820191906000526020600020905b815481529060010190602001808311610af157829003601f168201915b5050505050905083565b600560a06040519081016040528060016003540181526020013373ffffffffffffffffffffffffffffffffffffffff168152602001838152602001602060405190810160405280600081525081526020016020604051908101604052806000815250815250908060018154018082558091505090600182039060005260206000209060050201600090919290919091506000820151816000015560208201518160010160006101000a81548173ffffffffffffffffffffffffffffffffffffffff021916908373ffffffffffffffffffffffffffffffffffffffff1602179055506040820151816002019080519060200190610c15929190611394565b506060820151816003019080519060200190610c32929190611394565b506080820151816004019080519060200190610c4f929190611394565b5050505060036000815480929190600101919050555050565b60015481565b600660606040519081016040528060016004540181526020013373ffffffffffffffffffffffffffffffffffffffff16815260200183815250908060018154018082558091505090600182039060005260206000209060030201600090919290919091506000820151816000015560208201518160010160006101000a81548173ffffffffffffffffffffffffffffffffffffffff021916908373ffffffffffffffffffffffffffffffffffffffff1602179055506040820151816002019080519060200190610d3f929190611394565b5050505060046000815480929190600101919050555050565b6001610d6333610e49565b016001819055508060009080519060200190610d80929190611414565b5050565b6060600560018303815481101515610d9857fe5b90600052602060002090600502016003018054600181600116156101000203166002900480601f016020809104026020016040519081016040528092919081815260200182805460018160011615610100020316600290048015610e3d5780601f10610e1257610100808354040283529160200191610e3d565b820191906000526020600020905b815481529060010190602001808311610e2057829003601f168201915b50505050509050919050565b600080600190505b600354811015610ee5578273ffffffffffffffffffffffffffffffffffffffff16600582815481101515610e8157fe5b906000526020600020906005020160010160009054906101000a900473ffffffffffffffffffffffffffffffffffffffff1673ffffffffffffffffffffffffffffffffffffffff161415610ed85780915050610eeb565b8080600101915050610e51565b50600190505b919050565b6060600582815481101515610f0157fe5b90600052602060002090600502016003018054600181600116156101000203166002900480601f016020809104026020016040519081016040528092919081815260200182805460018160011615610100020316600290048015610fa65780601f10610f7b57610100808354040283529160200191610fa6565b820191906000526020600020905b815481529060010190602001808311610f8957829003601f168201915b50505050509050919050565b600581815481101515610fc157fe5b90600052602060002090600502016000915090508060000154908060010160009054906101000a900473ffffffffffffffffffffffffffffffffffffffff1690806002018054600181600116156101000203166002900480601f0160208091040260200160405190810160405280929190818152602001828054600181600116156101000203166002900480156110995780601f1061106e57610100808354040283529160200191611099565b820191906000526020600020905b81548152906001019060200180831161107c57829003601f168201915b505050505090806003018054600181600116156101000203166002900480601f0160208091040260200160405190810160405280929190818152602001828054600181600116156101000203166002900480156111375780601f1061110c57610100808354040283529160200191611137565b820191906000526020600020905b81548152906001019060200180831161111a57829003601f168201915b505050505090806004018054600181600116156101000203166002900480601f0160208091040260200160405190810160405280929190818152602001828054600181600116156101000203166002900480156111d55780601f106111aa576101008083540402835291602001916111d5565b820191906000526020600020905b8154815290600101906020018083116111b857829003601f168201915b5050505050905085565b600260009054906101000a900473ffffffffffffffffffffffffffffffffffffffff1673ffffffffffffffffffffffffffffffffffffffff163373ffffffffffffffffffffffffffffffffffffffff1614151561123b57600080fd5b80600260006101000a81548173ffffffffffffffffffffffffffffffffffffffff021916908373ffffffffffffffffffffffffffffffffffffffff16021790555050565b60608160056001850381548110151561129457fe5b906000526020600020906005020160040190805190602001906112b8929190611414565b5092915050565b6000600190505b600354811015611359573373ffffffffffffffffffffffffffffffffffffffff166005828154811015156112f657fe5b906000526020600020906005020160010160009054906101000a900473ffffffffffffffffffffffffffffffffffffffff1673ffffffffffffffffffffffffffffffffffffffff16141561134c57806001819055505b80806001019150506112c6565b5080600560015481548110151561136c57fe5b90600052602060002090600502016003019080519060200190611390929190611414565b5050565b828054600181600116156101000203166002900490600052602060002090601f016020900481019282601f106113d557805160ff1916838001178555611403565b82800160010185558215611403579182015b828111156114025782518255916020019190600101906113e7565b5b5090506114109190611494565b5090565b828054600181600116156101000203166002900490600052602060002090601f016020900481019282601f1061145557805160ff1916838001178555611483565b82800160010185558215611483579182015b82811115611482578251825591602001919060010190611467565b5b5090506114909190611494565b5090565b6114b691905b808211156114b257600081600090555060010161149a565b5090565b9056fea165627a7a72305820fedcac4f243cab397c33eae13c15dcd3f139b82507d6fa442920ae29341d6c410029",
  "source": "pragma solidity 0.5.0;\n\ncontract Doc {\n  string ipfsHash;\n  uint public xyz=0;\n\n  struct Patient{\n        uint patientId;\n        address payable patientAddress;\n        string name;\n        string filehash;\n        string drNotes;\n    }\n    address payable owner;\n    struct Doctor{\n        uint doctorId;\n        address doctorAddress;\n        string name;\n    }\n    uint patientCount =0;\n    uint doctorCount =0;\n\n    Patient[] public patient;\n    Doctor[] public doctor;\n    modifier onlyOwner {\n        require(msg.sender == owner);\n        _;\n    }\n\n  constructor()public {\n    owner = msg.sender;\n  }\n\n  function set(string memory x) public {\n    xyz= getId(msg.sender)+1;\n     \n    ipfsHash = x;\n  }\n\n    function getId(address payable xyz1)public view  returns(uint)  {\n        for(uint i=1;i<patientCount;i++)\n        {\n            if(patient[(i)].patientAddress == xyz1)\n                {\n                    return i;\n                }\n        }\n    return 1;\n  }\n\n  function changeHeadDr(address payable _newDr)public onlyOwner {\n    owner = _newDr;\n  }\n\n  function newPatient(string memory _name) public {\n    patient.push(Patient(patientCount+1,msg.sender,_name,\"\",\"\"));\n    patientCount++;\n  }\n\n  function newDoctor(string memory _name) public {\n    doctor.push(Doctor(doctorCount+1,msg.sender,_name));\n    doctorCount++;\n  }\n\n  function doctorCheckup(uint _patientId)public view returns(string memory){\n    return patient[(_patientId-1)].filehash;\n  }\n\n  function doctorNotes(uint _patientId,string memory _notes) public returns(string memory){\n    patient[_patientId-1].drNotes = _notes;\n  }\n\n  function uploadFile(string memory _file) public {\n           for(uint i=1;i<patientCount;i++)\n        {\n            if(patient[(i)].patientAddress == msg.sender)\n                {\n                    xyz = i;\n                }\n        }\n   patient[xyz].filehash = _file;\n  }\n\n  function getHash(uint _id) public view returns (string memory) {\n    return patient[_id].filehash;\n    //return 'abce';\n  }\n}",
  "sourcePath": "/home/cero/ipfs/2/kdoc/src/contracts/Doc.sol",
  "compiler": {
    "name": "solc",
    "version": "0.5.0+commit.1d4f565a.Emscripten.clang"
  },
  "schemaVersion": "3.0.10",
  "updatedAt": "2020-05-17T05:25:12.367Z",
  "devdoc": {
    "methods": {}
  },
  "userdoc": {
    "methods": {}
  }
}