{
  "contractName": "SimpleStorage",
  "abi": [
    {
      "constant": true,
      "inputs": [
        {
          "name": "",
          "type": "uint256"
        }
      ],
      "name": "doctor",
      "outputs": [
        {
          "name": "doctorId",
          "type": "uint256"
        },
        {
          "name": "doctorAddress",
          "type": "address"
        },
        {
          "name": "name",
          "type": "string"
        }
      ],
      "payable": false,
      "stateMutability": "view",
      "type": "function"
    },
    {
      "constant": true,
      "inputs": [
        {
          "name": "",
          "type": "uint256"
        }
      ],
      "name": "patient",
      "outputs": [
        {
          "name": "patientId",
          "type": "uint256"
        },
        {
          "name": "patientAddress",
          "type": "address"
        },
        {
          "name": "name",
          "type": "string"
        },
        {
          "name": "filehash",
          "type": "string"
        },
        {
          "name": "drNotes",
          "type": "string"
        }
      ],
      "payable": false,
      "stateMutability": "view",
      "type": "function"
    },
    {
      "inputs": [],
      "payable": false,
      "stateMutability": "nonpayable",
      "type": "constructor"
    },
    {
      "constant": false,
      "inputs": [
        {
          "name": "x",
          "type": "string"
        }
      ],
      "name": "set",
      "outputs": [],
      "payable": false,
      "stateMutability": "nonpayable",
      "type": "function"
    },
    {
      "constant": false,
      "inputs": [
        {
          "name": "_newDr",
          "type": "address"
        }
      ],
      "name": "changeHeadDr",
      "outputs": [],
      "payable": false,
      "stateMutability": "nonpayable",
      "type": "function"
    },
    {
      "constant": false,
      "inputs": [
        {
          "name": "_name",
          "type": "string"
        }
      ],
      "name": "newPatient",
      "outputs": [],
      "payable": false,
      "stateMutability": "nonpayable",
      "type": "function"
    },
    {
      "constant": false,
      "inputs": [
        {
          "name": "_name",
          "type": "string"
        }
      ],
      "name": "newDoctor",
      "outputs": [],
      "payable": false,
      "stateMutability": "nonpayable",
      "type": "function"
    },
    {
      "constant": true,
      "inputs": [
        {
          "name": "_patientId",
          "type": "uint256"
        }
      ],
      "name": "doctorCheckup",
      "outputs": [
        {
          "name": "",
          "type": "string"
        }
      ],
      "payable": false,
      "stateMutability": "view",
      "type": "function"
    },
    {
      "constant": false,
      "inputs": [
        {
          "name": "_patientId",
          "type": "uint256"
        },
        {
          "name": "_notes",
          "type": "string"
        }
      ],
      "name": "doctorNotes",
      "outputs": [
        {
          "name": "",
          "type": "string"
        }
      ],
      "payable": false,
      "stateMutability": "nonpayable",
      "type": "function"
    },
    {
      "constant": false,
      "inputs": [
        {
          "name": "_file",
          "type": "string"
        },
        {
          "name": "_id",
          "type": "uint256"
        }
      ],
      "name": "uploadFile",
      "outputs": [],
      "payable": false,
      "stateMutability": "nonpayable",
      "type": "function"
    },
    {
      "constant": true,
      "inputs": [],
      "name": "get",
      "outputs": [
        {
          "name": "",
          "type": "string"
        }
      ],
      "payable": false,
      "stateMutability": "view",
      "type": "function"
    }
  ],
  "bytecode": "0x60806040526000600255600060035534801561001a57600080fd5b5033600160006101000a81548173ffffffffffffffffffffffffffffffffffffffff021916908373ffffffffffffffffffffffffffffffffffffffff1602179055506112ad8061006b6000396000f3fe6080604052600436106100a4576000357c0100000000000000000000000000000000000000000000000000000000900463ffffffff1680631950e7b6146100a9578063230aac0a1461019757806347ccf3571461025f5780634ed3885e1461032757806354dff670146103ef5780636d4ce63c146104a357806374607d91146105335780638f0e28d7146106f95780639f734f82146107cb578063c245a4391461081c575b600080fd5b3480156100b557600080fd5b506100e2600480360360208110156100cc57600080fd5b8101908080359060200190929190505050610967565b604051808481526020018373ffffffffffffffffffffffffffffffffffffffff1673ffffffffffffffffffffffffffffffffffffffff16815260200180602001828103825283818151815260200191508051906020019080838360005b8381101561015a57808201518184015260208101905061013f565b50505050905090810190601f1680156101875780820380516001836020036101000a031916815260200191505b5094505050505060405180910390f35b3480156101a357600080fd5b5061025d600480360360208110156101ba57600080fd5b81019080803590602001906401000000008111156101d757600080fd5b8201836020820111156101e957600080fd5b8035906020019184600183028401116401000000008311171561020b57600080fd5b91908080601f016020809104026020016040519081016040528093929190818152602001838380828437600081840152601f19601f820116905080830192505050505050509192919290505050610a58565b005b34801561026b57600080fd5b506103256004803603602081101561028257600080fd5b810190808035906020019064010000000081111561029f57600080fd5b8201836020820111156102b157600080fd5b803590602001918460018302840111640100000000831117156102d357600080fd5b91908080601f016020809104026020016040519081016040528093929190818152602001838380828437600081840152601f19601f820116905080830192505050505050509192919290505050610ba8565b005b34801561033357600080fd5b506103ed6004803603602081101561034a57600080fd5b810190808035906020019064010000000081111561036757600080fd5b82018360208201111561037957600080fd5b8035906020019184600183028401116401000000008311171561039b57600080fd5b91908080601f016020809104026020016040519081016040528093929190818152602001838380828437600081840152601f19601f820116905080830192505050505050509192919290505050610c92565b005b3480156103fb57600080fd5b506104286004803603602081101561041257600080fd5b8101908080359060200190929190505050610cac565b6040518080602001828103825283818151815260200191508051906020019080838360005b8381101561046857808201518184015260208101905061044d565b50505050905090810190601f1680156104955780820380516001836020036101000a031916815260200191505b509250505060405180910390f35b3480156104af57600080fd5b506104b8610d71565b6040518080602001828103825283818151815260200191508051906020019080838360005b838110156104f85780820151818401526020810190506104dd565b50505050905090810190601f1680156105255780820380516001836020036101000a031916815260200191505b509250505060405180910390f35b34801561053f57600080fd5b5061056c6004803603602081101561055657600080fd5b8101908080359060200190929190505050610e13565b604051808681526020018573ffffffffffffffffffffffffffffffffffffffff1673ffffffffffffffffffffffffffffffffffffffff168152602001806020018060200180602001848103845287818151815260200191508051906020019080838360005b838110156105ec5780820151818401526020810190506105d1565b50505050905090810190601f1680156106195780820380516001836020036101000a031916815260200191505b50848103835286818151815260200191508051906020019080838360005b83811015610652578082015181840152602081019050610637565b50505050905090810190601f16801561067f5780820380516001836020036101000a031916815260200191505b50848103825285818151815260200191508051906020019080838360005b838110156106b857808201518184015260208101905061069d565b50505050905090810190601f1680156106e55780820380516001836020036101000a031916815260200191505b509850505050505050505060405180910390f35b34801561070557600080fd5b506107c96004803603604081101561071c57600080fd5b810190808035906020019064010000000081111561073957600080fd5b82018360208201111561074b57600080fd5b8035906020019184600183028401116401000000008311171561076d57600080fd5b91908080601f016020809104026020016040519081016040528093929190818152602001838380828437600081840152601f19601f82011690508083019250505050505050919291929080359060200190929190505050611040565b005b3480156107d757600080fd5b5061081a600480360360208110156107ee57600080fd5b81019080803573ffffffffffffffffffffffffffffffffffffffff16906020019092919050505061107c565b005b34801561082857600080fd5b506108ec6004803603604081101561083f57600080fd5b81019080803590602001909291908035906020019064010000000081111561086657600080fd5b82018360208201111561087857600080fd5b8035906020019184600183028401116401000000008311171561089a57600080fd5b91908080601f016020809104026020016040519081016040528093929190818152602001838380828437600081840152601f19601f82011690508083019250505050505050919291929050505061111c565b6040518080602001828103825283818151815260200191508051906020019080838360005b8381101561092c578082015181840152602081019050610911565b50505050905090810190601f1680156109595780820380516001836020036101000a031916815260200191505b509250505060405180910390f35b60058181548110151561097657fe5b90600052602060002090600302016000915090508060000154908060010160009054906101000a900473ffffffffffffffffffffffffffffffffffffffff1690806002018054600181600116156101000203166002900480601f016020809104026020016040519081016040528092919081815260200182805460018160011615610100020316600290048015610a4e5780601f10610a2357610100808354040283529160200191610a4e565b820191906000526020600020905b815481529060010190602001808311610a3157829003601f168201915b5050505050905083565b600460a06040519081016040528060016002540181526020013373ffffffffffffffffffffffffffffffffffffffff168152602001838152602001602060405190810160405280600081525081526020016020604051908101604052806000815250815250908060018154018082558091505090600182039060005260206000209060050201600090919290919091506000820151816000015560208201518160010160006101000a81548173ffffffffffffffffffffffffffffffffffffffff021916908373ffffffffffffffffffffffffffffffffffffffff1602179055506040820151816002019080519060200190610b5592919061115c565b506060820151816003019080519060200190610b7292919061115c565b506080820151816004019080519060200190610b8f92919061115c565b5050505060026000815480929190600101919050555050565b600560606040519081016040528060016003540181526020013373ffffffffffffffffffffffffffffffffffffffff16815260200183815250908060018154018082558091505090600182039060005260206000209060030201600090919290919091506000820151816000015560208201518160010160006101000a81548173ffffffffffffffffffffffffffffffffffffffff021916908373ffffffffffffffffffffffffffffffffffffffff1602179055506040820151816002019080519060200190610c7992919061115c565b5050505060036000815480929190600101919050555050565b8060009080519060200190610ca89291906111dc565b5050565b6060600460018303815481101515610cc057fe5b90600052602060002090600502016003018054600181600116156101000203166002900480601f016020809104026020016040519081016040528092919081815260200182805460018160011615610100020316600290048015610d655780601f10610d3a57610100808354040283529160200191610d65565b820191906000526020600020905b815481529060010190602001808311610d4857829003601f168201915b50505050509050919050565b606060008054600181600116156101000203166002900480601f016020809104026020016040519081016040528092919081815260200182805460018160011615610100020316600290048015610e095780601f10610dde57610100808354040283529160200191610e09565b820191906000526020600020905b815481529060010190602001808311610dec57829003601f168201915b5050505050905090565b600481815481101515610e2257fe5b90600052602060002090600502016000915090508060000154908060010160009054906101000a900473ffffffffffffffffffffffffffffffffffffffff1690806002018054600181600116156101000203166002900480601f016020809104026020016040519081016040528092919081815260200182805460018160011615610100020316600290048015610efa5780601f10610ecf57610100808354040283529160200191610efa565b820191906000526020600020905b815481529060010190602001808311610edd57829003601f168201915b505050505090806003018054600181600116156101000203166002900480601f016020809104026020016040519081016040528092919081815260200182805460018160011615610100020316600290048015610f985780601f10610f6d57610100808354040283529160200191610f98565b820191906000526020600020905b815481529060010190602001808311610f7b57829003601f168201915b505050505090806004018054600181600116156101000203166002900480601f0160208091040260200160405190810160405280929190818152602001828054600181600116156101000203166002900480156110365780601f1061100b57610100808354040283529160200191611036565b820191906000526020600020905b81548152906001019060200180831161101957829003601f168201915b5050505050905085565b8160046001830381548110151561105357fe5b906000526020600020906005020160030190805190602001906110779291906111dc565b505050565b600160009054906101000a900473ffffffffffffffffffffffffffffffffffffffff1673ffffffffffffffffffffffffffffffffffffffff163373ffffffffffffffffffffffffffffffffffffffff161415156110d857600080fd5b80600160006101000a81548173ffffffffffffffffffffffffffffffffffffffff021916908373ffffffffffffffffffffffffffffffffffffffff16021790555050565b60608160046001850381548110151561113157fe5b906000526020600020906005020160040190805190602001906111559291906111dc565b5092915050565b828054600181600116156101000203166002900490600052602060002090601f016020900481019282601f1061119d57805160ff19168380011785556111cb565b828001600101855582156111cb579182015b828111156111ca5782518255916020019190600101906111af565b5b5090506111d8919061125c565b5090565b828054600181600116156101000203166002900490600052602060002090601f016020900481019282601f1061121d57805160ff191683800117855561124b565b8280016001018555821561124b579182015b8281111561124a57825182559160200191906001019061122f565b5b509050611258919061125c565b5090565b61127e91905b8082111561127a576000816000905550600101611262565b5090565b9056fea165627a7a723058201f54ea02252a1d9191e89bd3c6f43c858a0976b3d459ce81c4c9620dd1a3d1e40029",
  "source": "pragma solidity 0.5.0;\n\ncontract SimpleStorage {\n  string ipfsHash;\n\n  struct Patient{\n        uint patientId;\n        address payable patientAddress;\n        string name;\n        string filehash;\n        string drNotes;\n    }\n    address payable owner;\n    struct Doctor{\n        uint doctorId;\n        address doctorAddress;\n        string name;\n    }\n    uint patientCount =0;\n    uint doctorCount =0;\n\n    Patient[] public patient;\n    Doctor[] public doctor;\n    modifier onlyOwner {\n        require(msg.sender == owner);\n        _;\n    }\n\n  constructor()public {\n    owner = msg.sender;\n  }\n\n  function set(string memory x) public {\n    ipfsHash = x;\n  }\n\n  function changeHeadDr(address payable _newDr)public onlyOwner {\n    owner = _newDr;\n  }\n\n  function newPatient(string memory _name) public {\n    patient.push(Patient(patientCount+1,msg.sender,_name,\"\",\"\"));\n    patientCount++;\n  }\n\n  function newDoctor(string memory _name) public {\n    doctor.push(Doctor(doctorCount+1,msg.sender,_name));\n    doctorCount++;\n  }\n\n  function doctorCheckup(uint _patientId)public view returns(string memory){\n    return patient[(_patientId-1)].filehash;\n  }\n\n  function doctorNotes(uint _patientId,string memory _notes) public returns(string memory){\n    patient[_patientId-1].drNotes = _notes;\n  }\n\n  function uploadFile(string memory _file,uint _id) public {\n    patient[_id-1].filehash = _file;\n  }\n\n  function get() public view returns (string memory) {\n    return ipfsHash;\n  }\n}",
  "sourcePath": "/home/cero/ipfs/2/meme_of_the_day/src/contracts/Doc.sol",
  "compiler": {
    "name": "solc",
    "version": "0.5.0+commit.1d4f565a.Emscripten.clang"
  },
  "schemaVersion": "3.0.10",
  "updatedAt": "2020-05-05T04:39:58.611Z",
  "devdoc": {
    "methods": {}
  },
  "userdoc": {
    "methods": {}
  }
}